{"abi":[{"type":"constructor","inputs":[{"name":"loanDuration","type":"uint256","internalType":"uint256"}],"stateMutability":"nonpayable"},{"type":"function","name":"cancelBorrowerIntent","inputs":[{"name":"borrowerIntentId","type":"uint256","internalType":"uint256"}],"outputs":[],"stateMutability":"nonpayable"},{"type":"function","name":"cancelLenderIntent","inputs":[{"name":"lenderIntentId","type":"uint256","internalType":"uint256"}],"outputs":[],"stateMutability":"nonpayable"},{"type":"function","name":"changeLoadDuration","inputs":[{"name":"loanDuration","type":"uint256","internalType":"uint256"}],"outputs":[],"stateMutability":"nonpayable"},{"type":"function","name":"claimCollaeral","inputs":[{"name":"solutionId","type":"uint256","internalType":"uint256"}],"outputs":[],"stateMutability":"nonpayable"},{"type":"function","name":"createBorrowerIntent","inputs":[{"name":"tokenAddress","type":"address","internalType":"address"},{"name":"value","type":"uint256","internalType":"uint256"},{"name":"maxInterest","type":"uint256","internalType":"uint256"},{"name":"nftId","type":"uint256","internalType":"uint256"},{"name":"nftAddress","type":"address","internalType":"address"}],"outputs":[{"name":"borrowerIntentId","type":"uint256","internalType":"uint256"}],"stateMutability":"nonpayable"},{"type":"function","name":"createLenderIntent","inputs":[{"name":"tokenAddress","type":"address","internalType":"address"},{"name":"value","type":"uint256","internalType":"uint256"},{"name":"minInterest","type":"uint256","internalType":"uint256"}],"outputs":[{"name":"lenderIntentId","type":"uint256","internalType":"uint256"}],"stateMutability":"nonpayable"},{"type":"function","name":"getBorrowerIntents","inputs":[],"outputs":[{"name":"borrowerIntents","type":"tuple[]","internalType":"struct LoanIntent.BorrowerIntent[]","components":[{"name":"id","type":"uint256","internalType":"uint256"},{"name":"owner","type":"address","internalType":"address"},{"name":"tokenAddress","type":"address","internalType":"address"},{"name":"value","type":"uint256","internalType":"uint256"},{"name":"maxInterest","type":"uint256","internalType":"uint256"},{"name":"collateral","type":"tuple","internalType":"struct LoanIntent.Collateral","components":[{"name":"nftId","type":"uint256","internalType":"uint256"},{"name":"nftAddress","type":"address","internalType":"address"}]},{"name":"status","type":"uint8","internalType":"enum LoanIntent.Status"}]}],"stateMutability":"view"},{"type":"function","name":"getLenderIntents","inputs":[],"outputs":[{"name":"lenderIntents","type":"tuple[]","internalType":"struct LoanIntent.LenderIntent[]","components":[{"name":"id","type":"uint256","internalType":"uint256"},{"name":"owner","type":"address","internalType":"address"},{"name":"tokenAddress","type":"address","internalType":"address"},{"name":"minInterest","type":"uint256","internalType":"uint256"},{"name":"value","type":"uint256","internalType":"uint256"},{"name":"status","type":"uint8","internalType":"enum LoanIntent.Status"}]}],"stateMutability":"view"},{"type":"function","name":"getSolutions","inputs":[],"outputs":[{"name":"solutions","type":"tuple[]","internalType":"struct LoanIntent.Solution[]","components":[{"name":"id","type":"uint256","internalType":"uint256"},{"name":"borrowerIntentId","type":"uint256","internalType":"uint256"},{"name":"lenderIntentId","type":"uint256","internalType":"uint256"},{"name":"interest","type":"uint256","internalType":"uint256"},{"name":"dueTimestamp","type":"uint256","internalType":"uint256"}]}],"stateMutability":"view"},{"type":"function","name":"onERC721Received","inputs":[{"name":"","type":"address","internalType":"address"},{"name":"","type":"address","internalType":"address"},{"name":"","type":"uint256","internalType":"uint256"},{"name":"","type":"bytes","internalType":"bytes"}],"outputs":[{"name":"","type":"bytes4","internalType":"bytes4"}],"stateMutability":"pure"},{"type":"function","name":"owner","inputs":[],"outputs":[{"name":"","type":"address","internalType":"address"}],"stateMutability":"view"},{"type":"function","name":"renounceOwnership","inputs":[],"outputs":[],"stateMutability":"nonpayable"},{"type":"function","name":"repay","inputs":[{"name":"solutionId","type":"uint256","internalType":"uint256"}],"outputs":[],"stateMutability":"nonpayable"},{"type":"function","name":"solve","inputs":[{"name":"borrowerId","type":"uint256","internalType":"uint256"},{"name":"lenderId","type":"uint256","internalType":"uint256"}],"outputs":[],"stateMutability":"nonpayable"},{"type":"function","name":"transferOwnership","inputs":[{"name":"newOwner","type":"address","internalType":"address"}],"outputs":[],"stateMutability":"nonpayable"},{"type":"event","name":"OwnershipTransferred","inputs":[{"name":"previousOwner","type":"address","indexed":true,"internalType":"address"},{"name":"newOwner","type":"address","indexed":true,"internalType":"address"}],"anonymous":false},{"type":"error","name":"OwnableInvalidOwner","inputs":[{"name":"owner","type":"address","internalType":"address"}]},{"type":"error","name":"OwnableUnauthorizedAccount","inputs":[{"name":"account","type":"address","internalType":"address"}]}],"bytecode":{"object":"0x6080604052348015600f57600080fd5b50604051612bea380380612bea833981016040819052602c9160bf565b3380605157604051631e4fbdf760e01b81526000600482015260240160405180910390fd5b605881606f565b5060006001819055600281905560035560045560d7565b600080546001600160a01b038381166001600160a01b0319831681178455604051919092169283917f8be0079c531659141344cd1fd0a4f28419497f9722a3daafe3b4186f6b6457e09190a35050565b60006020828403121560d057600080fd5b5051919050565b612b04806100e66000396000f3fe608060405234801561001057600080fd5b50600436106100f55760003560e01c8063922307a611610097578063cc52a3b411610066578063cc52a3b414610208578063dff04c891461021b578063f2fde38b1461022e578063f49230261461024157600080fd5b8063922307a6146101ac578063a2e47242146101bf578063b4e9dbee146101d2578063c9b89449146101f357600080fd5b8063367c5adc116100d3578063367c5adc14610161578063371fd8e614610176578063715018a6146101895780638da5cb5b1461019157600080fd5b8063150b7a02146100fa578063199c9fa51461013757806322433dbb1461014c575b600080fd5b610119610108366004612585565b630a85bd0160e11b95945050505050565b6040516001600160e01b031990911681526020015b60405180910390f35b61014a610145366004612626565b610254565b005b610154610519565b60405161012e9190612677565b6101696105ec565b60405161012e919061270d565b61014a610184366004612626565b610674565b61014a610cf3565b6000546040516001600160a01b03909116815260200161012e565b61014a6101ba366004612626565b610d07565b61014a6101cd366004612626565b6111ea565b6101e56101e0366004612775565b6111f7565b60405190815260200161012e565b6101fb611611565b60405161012e91906127cb565b61014a610216366004612626565b6116fe565b6101e561022936600461286c565b611902565b61014a61023c3660046128a1565b611b63565b61014a61024f3660046128c5565b611ba1565b600060058281548110610269576102696128e7565b60009182526020918290206040805160e08101825260089093029091018054835260018101546001600160a01b0390811684860152600282015481168484015260038201546060850152600480830154608086015283518085019094526005830154845260068301549091169483019490945260a083019190915260078101549192909160c084019160ff909116908111156103075761030761263f565b60048111156103185761031861263f565b90525060208101519091506001600160a01b031633146103715760405162461bcd60e51b815260206004820152600f60248201526e2737ba103a3432903137b9393bb2b960891b60448201526064015b60405180910390fd5b60008160c0015160048111156103895761038961263f565b146103c75760405162461bcd60e51b815260206004820152600e60248201526d496e76616c69642073746174757360901b6044820152606401610368565b60a0810151602080820151908301519151604051632142170760e11b815291926001600160a01b038416926342842e0e926104099230929091906004016128fd565b600060405180830381600087803b15801561042357600080fd5b505af1158015610437573d6000803e3d6000fd5b5050600460c085015250506005805483919085908110610459576104596128e7565b6000918252602091829020835160089092020190815582820151600180830180546001600160a01b039384166001600160a01b031991821617909155604086015160028501805491851691831691909117905560608601516003850155608086015160048086019190915560a087015180516005870155909501516006850180549190941691161790915560c084015160078301805493949193909260ff1990911691849081111561050d5761050d61263f565b02179055505050505050565b60606006805480602002602001604051908101604052809291908181526020016000905b828210156105e35760008481526020908190206040805160c081018252600686029092018054835260018101546001600160a01b0390811694840194909452600281015490931690820152600382015460608201526004808301546080830152600583015491929160a084019160ff909116908111156105bf576105bf61263f565b60048111156105d0576105d061263f565b815250508152602001906001019061053d565b50505050905090565b60606007805480602002602001604051908101604052809291908181526020016000905b828210156105e357838290600052602060002090600502016040518060a00160405290816000820154815260200160018201548152602001600282015481526020016003820154815260200160048201548152505081526020019060010190610610565b600060078281548110610689576106896128e7565b90600052602060002090600502016040518060a0016040529081600082015481526020016001820154815260200160028201548152602001600382015481526020016004820154815250509050806080015142111561071e5760405162461bcd60e51b8152602060048201526011602482015270506173742074686520647565206461746560781b6044820152606401610368565b60006005826020015181548110610737576107376128e7565b60009182526020918290206040805160e08101825260089093029091018054835260018101546001600160a01b0390811684860152600282015481168484015260038201546060850152600480830154608086015283518085019094526005830154845260068301549091169483019490945260a083019190915260078101549192909160c084019160ff909116908111156107d5576107d561263f565b60048111156107e6576107e661263f565b81525050905060006006836040015181548110610805576108056128e7565b60009182526020918290206040805160c08101825260069093029091018054835260018101546001600160a01b0390811694840194909452600281015490931690820152600382015460608201526004808301546080830152600583015491929160a084019160ff909116908111156108805761088061263f565b60048111156108915761089161263f565b905250905060018260c0015160048111156108ae576108ae61263f565b146108cb5760405162461bcd60e51b815260040161036890612921565b60028160a0015160048111156108e3576108e361263f565b146109005760405162461bcd60e51b815260040161036890612958565b60208201516001600160a01b0316331461094f5760405162461bcd60e51b815260206004820152601060248201526f2737ba103a3432903137b93937bbb2b960811b6044820152606401610368565b604082015160a08301516020015160808401516060850151600091606491610977919061299d565b61098191906129ba565b9050600081866060015161099591906129dc565b6020870151604051636eb1769f60e11b81526001600160a01b03918216600482015230602482015291925082919086169063dd62ed3e90604401602060405180830381865afa1580156109ec573d6000803e3d6000fd5b505050506040513d601f19601f82011682018060405250810190610a1091906129ef565b1015610a705760405162461bcd60e51b815260206004820152602960248201527f41646420616c6c6f77616e636573206f6620616d6f756e7420746f20746869736044820152680818dbdb9d1c9858dd60ba1b6064820152608401610368565b602080870151908601516040516323b872dd60e01b81526001600160a01b038716926323b872dd92610aa69286906004016128fd565b6020604051808303816000875af1158015610ac5573d6000803e3d6000fd5b505050506040513d601f19601f82011682018060405250810190610ae99190612a08565b50602086015160a087015151604051632142170760e11b81526001600160a01b038616926342842e0e92610b2392309291906004016128fd565b600060405180830381600087803b158015610b3d57600080fd5b505af1158015610b51573d6000803e3d6000fd5b5050600360a088015250506040870151600680548792908110610b7657610b766128e7565b6000918252602091829020835160069092020190815590820151600180830180546001600160a01b039384166001600160a01b03199182161790915560408501516002850180549190941691161790915560608301516003830155608083015160048084019190915560a08401516005840180549193909260ff19909216918490811115610c0657610c0661263f565b021790555050600160c0880152506020870151600580548892908110610c2e57610c2e6128e7565b6000918252602091829020835160089092020190815582820151600180830180546001600160a01b039384166001600160a01b031991821617909155604086015160028501805491851691831691909117905560608601516003850155608086015160048086019190915560a087015180516005870155909501516006850180549190941691161790915560c084015160078301805493949193909260ff19909116918490811115610ce257610ce261263f565b021790555050505050505050505050565b610cfb6124f3565b610d056000612520565b565b600060078281548110610d1c57610d1c6128e7565b90600052602060002090600502016040518060a001604052908160008201548152602001600182015481526020016002820154815260200160038201548152602001600482015481525050905080608001514211610daa5760405162461bcd60e51b815260206004820152600b60248201526a4e6f74207965742064756560a81b6044820152606401610368565b60006005826020015181548110610dc357610dc36128e7565b60009182526020918290206040805160e08101825260089093029091018054835260018101546001600160a01b0390811684860152600282015481168484015260038201546060850152600480830154608086015283518085019094526005830154845260068301549091169483019490945260a083019190915260078101549192909160c084019160ff90911690811115610e6157610e6161263f565b6004811115610e7257610e7261263f565b81525050905060006006836040015181548110610e9157610e916128e7565b60009182526020918290206040805160c08101825260069093029091018054835260018101546001600160a01b0390811694840194909452600281015490931690820152600382015460608201526004808301546080830152600583015491929160a084019160ff90911690811115610f0c57610f0c61263f565b6004811115610f1d57610f1d61263f565b905250905060018260c001516004811115610f3a57610f3a61263f565b14610f575760405162461bcd60e51b815260040161036890612921565b60028160a001516004811115610f6f57610f6f61263f565b14610f8c5760405162461bcd60e51b815260040161036890612958565b60208201516001600160a01b03163314610fdb5760405162461bcd60e51b815260206004820152601060248201526f2737ba103a3432903137b93937bbb2b960811b6044820152606401610368565b60a0820151602080820151908301519151604051632142170760e11b815291926001600160a01b038416926342842e0e9261101d9230929091906004016128fd565b600060405180830381600087803b15801561103757600080fd5b505af115801561104b573d6000803e3d6000fd5b5050600360a085015250506040840151600680548492908110611070576110706128e7565b6000918252602091829020835160069092020190815590820151600180830180546001600160a01b039384166001600160a01b03199182161790915560408501516002850180549190941691161790915560608301516003830155608083015160048084019190915560a08401516005840180549193909260ff199092169184908111156111005761110061263f565b021790555050600160c0850152506020840151600580548592908110611128576111286128e7565b6000918252602091829020835160089092020190815582820151600180830180546001600160a01b039384166001600160a01b031991821617909155604086015160028501805491851691831691909117905560608601516003850155608086015160048086019190915560a087015180516005870155909501516006850180549190941691161790915560c084015160078301805493949193909260ff199091169184908111156111dc576111dc61263f565b021790555050505050505050565b6111f26124f3565b600455565b6040516331a9108f60e11b815260048101839052600090829033906001600160a01b03831690636352211e90602401602060405180830381865afa158015611243573d6000803e3d6000fd5b505050506040513d601f19601f820116820180604052508101906112679190612a2a565b6001600160a01b0316146112b45760405162461bcd60e51b8152602060048201526014602482015273139bdd081bdddb995c881bd9881d1a194813919560621b6044820152606401610368565b60405163020604bf60e21b81526004810185905230906001600160a01b0383169063081812fc90602401602060405180830381865afa1580156112fb573d6000803e3d6000fd5b505050506040513d601f19601f8201168201806040525081019061131f9190612a2a565b6001600160a01b0316148061139d575060405163e985e9c560e01b81523360048201523060248201526001600160a01b0382169063e985e9c590604401602060405180830381865afa158015611379573d6000803e3d6000fd5b505050506040513d601f19601f8201168201806040525081019061139d9190612a08565b6113b95760405162461bcd60e51b815260040161036890612a47565b60006040518060400160405280868152602001856001600160a01b0316815250905060006040518060e001604052806001548152602001336001600160a01b031681526020018a6001600160a01b03168152602001898152602001888152602001838152602001600060048111156114335761143361263f565b9052600580546001808201835560009290925282517f036b6384b5eca791c62761152d0c79bb0604c104a5fb6f4eb0703f3154bb3db060089092029182019081556020808501517f036b6384b5eca791c62761152d0c79bb0604c104a5fb6f4eb0703f3154bb3db1840180546001600160a01b03199081166001600160a01b039384161790915560408701517f036b6384b5eca791c62761152d0c79bb0604c104a5fb6f4eb0703f3154bb3db286018054831691841691909117905560608701517f036b6384b5eca791c62761152d0c79bb0604c104a5fb6f4eb0703f3154bb3db386015560808701517f036b6384b5eca791c62761152d0c79bb0604c104a5fb6f4eb0703f3154bb3db486015560a087015180517f036b6384b5eca791c62761152d0c79bb0604c104a5fb6f4eb0703f3154bb3db5870155909201517f036b6384b5eca791c62761152d0c79bb0604c104a5fb6f4eb0703f3154bb3db685018054909316911617905560c08401517f036b6384b5eca791c62761152d0c79bb0604c104a5fb6f4eb0703f3154bb3db7909201805494955085949193909160ff1916908360048111156115e8576115e861263f565b02179055505060018054915060006115ff83612a8b565b90915550505198975050505050505050565b60606005805480602002602001604051908101604052809291908181526020016000905b828210156105e35760008481526020908190206040805160e081018252600886029092018054835260018101546001600160a01b0390811684860152600282015481168484015260038201546060850152600480830154608086015283518085019094526005830154845260068301549091169483019490945260a083019190915260078101549192909160c084019160ff909116908111156116da576116da61263f565b60048111156116eb576116eb61263f565b8152505081526020019060010190611635565b600060068281548110611713576117136128e7565b60009182526020918290206040805160c08101825260069093029091018054835260018101546001600160a01b0390811694840194909452600281015490931690820152600382015460608201526004808301546080830152600583015491929160a084019160ff9091169081111561178e5761178e61263f565b600481111561179f5761179f61263f565b90525060208101519091506001600160a01b031633146117f35760405162461bcd60e51b815260206004820152600f60248201526e2737ba103a3432903137b9393bb2b960891b6044820152606401610368565b60008160a00151600481111561180b5761180b61263f565b146118495760405162461bcd60e51b815260206004820152600e60248201526d496e76616c69642073746174757360901b6044820152606401610368565b600460a08201526006805482919084908110611867576118676128e7565b6000918252602091829020835160069092020190815590820151600180830180546001600160a01b039384166001600160a01b03199182161790915560408501516002850180549190941691161790915560608301516003830155608083015160048084019190915560a08401516005840180549193909260ff199092169184908111156118f7576118f761263f565b021790555050505050565b604051636eb1769f60e11b8152336004820152306024820152600090849084906001600160a01b0383169063dd62ed3e90604401602060405180830381865afa158015611953573d6000803e3d6000fd5b505050506040513d601f19601f8201168201806040525081019061197791906129ef565b10156119955760405162461bcd60e51b815260040161036890612a47565b60006040518060c001604052806001548152602001336001600160a01b03168152602001876001600160a01b03168152602001858152602001868152602001600060048111156119e7576119e761263f565b90526006805460018082018355600083905283517ff652222313e28459528d920b65115c16c04f3efc82aaedc97be59f3f377c0d3f9290930291820192835560208401517ff652222313e28459528d920b65115c16c04f3efc82aaedc97be59f3f377c0d40830180546001600160a01b03199081166001600160a01b039384161790915560408601517ff652222313e28459528d920b65115c16c04f3efc82aaedc97be59f3f377c0d4185018054909216921691909117905560608401517ff652222313e28459528d920b65115c16c04f3efc82aaedc97be59f3f377c0d4283015560808401517ff652222313e28459528d920b65115c16c04f3efc82aaedc97be59f3f377c0d4383015560a08401517ff652222313e28459528d920b65115c16c04f3efc82aaedc97be59f3f377c0d4490920180549495508594909160ff1990911690836004811115611b3d57611b3d61263f565b0217905550506002805491506000611b5483612a8b565b90915550505195945050505050565b611b6b6124f3565b6001600160a01b038116611b9557604051631e4fbdf760e01b815260006004820152602401610368565b611b9e81612520565b50565b611ba96124f3565b600060058381548110611bbe57611bbe6128e7565b60009182526020918290206040805160e08101825260089093029091018054835260018101546001600160a01b0390811684860152600282015481168484015260038201546060850152600480830154608086015283518085019094526005830154845260068301549091169483019490945260a083019190915260078101549192909160c084019160ff90911690811115611c5c57611c5c61263f565b6004811115611c6d57611c6d61263f565b815250509050600060068381548110611c8857611c886128e7565b60009182526020918290206040805160c08101825260069093029091018054835260018101546001600160a01b0390811694840194909452600281015490931690820152600382015460608201526004808301546080830152600583015491929160a084019160ff90911690811115611d0357611d0361263f565b6004811115611d1457611d1461263f565b905250905060008260c001516004811115611d3157611d3161263f565b14611d4e5760405162461bcd60e51b815260040161036890612921565b60008160a001516004811115611d6657611d6661263f565b14611d835760405162461bcd60e51b815260040161036890612958565b8060800151826060015114611daa5760405162461bcd60e51b815260040161036890612aa4565b80604001516001600160a01b031682604001516001600160a01b031614611de35760405162461bcd60e51b815260040161036890612aa4565b806060015182608001511015611e0b5760405162461bcd60e51b815260040161036890612aa4565b6060828101516040808501519284015160a086015180516020909101519251636eb1769f60e11b8152336004820152306024820152939493919290918490829087906001600160a01b0384169063dd62ed3e90604401602060405180830381865afa158015611e7e573d6000803e3d6000fd5b505050506040513d601f19601f82011682018060405250810190611ea291906129ef565b1015611ec05760405162461bcd60e51b815260040161036890612a47565b60208801516040516370a0823160e01b81526001600160a01b03918216600482015288918416906370a0823190602401602060405180830381865afa158015611f0d573d6000803e3d6000fd5b505050506040513d601f19601f82011682018060405250810190611f3191906129ef565b1015611f7f5760405162461bcd60e51b815260206004820152601f60248201527f496e73756666696369656e742042616c616e636520666f72206c656e646572006044820152606401610368565b6040516331a9108f60e11b81526004810185905233906001600160a01b03831690636352211e90602401602060405180830381865afa158015611fc6573d6000803e3d6000fd5b505050506040513d601f19601f82011682018060405250810190611fea9190612a2a565b6001600160a01b0316146120375760405162461bcd60e51b8152602060048201526014602482015273139bdd081bdddb995c881bd9881d1a194813919560621b6044820152606401610368565b60405163020604bf60e21b81526004810185905230906001600160a01b0383169063081812fc90602401602060405180830381865afa15801561207e573d6000803e3d6000fd5b505050506040513d601f19601f820116820180604052508101906120a29190612a2a565b6001600160a01b03161480612120575060405163e985e9c560e01b81523360048201523060248201526001600160a01b0382169063e985e9c590604401602060405180830381865afa1580156120fc573d6000803e3d6000fd5b505050506040513d601f19601f820116820180604052508101906121209190612a08565b61213c5760405162461bcd60e51b815260040161036890612a47565b602080890151908a01516040516323b872dd60e01b81526001600160a01b038516926323b872dd92612172928c906004016128fd565b6020604051808303816000875af1158015612191573d6000803e3d6000fd5b505050506040513d601f19601f820116820180604052508101906121b59190612a08565b50604051632142170760e11b81526001600160a01b038216906342842e0e906121e6903390309089906004016128fd565b600060405180830381600087803b15801561220057600080fd5b505af1158015612214573d6000803e3d6000fd5b5050600260a08b01525050600680548991908c908110612236576122366128e7565b6000918252602091829020835160069092020190815590820151600180830180546001600160a01b039384166001600160a01b03199182161790915560408501516002850180549190941691161790915560608301516003830155608083015160048084019190915560a08401516005840180549193909260ff199092169184908111156122c6576122c661263f565b021790555050600160c08b015250600580548a91908d9081106122eb576122eb6128e7565b6000918252602091829020835160089092020190815582820151600180830180546001600160a01b039384166001600160a01b031991821617909155604086015160028501805491851691831691909117905560608601516003850155608086015160048086019190915560a087015180516005870155909501516006850180549190941691161790915560c084015160078301805493949193909260ff1990911691849081111561239f5761239f61263f565b021790555050600454600091506123b690426129dc565b90506000600354905060006040518060a001604052808381526020018f81526020018e8152602001898152602001848152509050600360008154809291906123fd90612a8b565b90915550506007805460018101825560009190915281517fa66cc928b5edb82af9bd49922954155ab7b0942694bea4ce44661d9a8736c68860059092029182015560208201517fa66cc928b5edb82af9bd49922954155ab7b0942694bea4ce44661d9a8736c68982015560408201517fa66cc928b5edb82af9bd49922954155ab7b0942694bea4ce44661d9a8736c68a82015560608201517fa66cc928b5edb82af9bd49922954155ab7b0942694bea4ce44661d9a8736c68b8201556080909101517fa66cc928b5edb82af9bd49922954155ab7b0942694bea4ce44661d9a8736c68c9091015550505050505050505050505050565b6000546001600160a01b03163314610d055760405163118cdaa760e01b8152336004820152602401610368565b600080546001600160a01b038381166001600160a01b0319831681178455604051919092169283917f8be0079c531659141344cd1fd0a4f28419497f9722a3daafe3b4186f6b6457e09190a35050565b6001600160a01b0381168114611b9e57600080fd5b60008060008060006080868803121561259d57600080fd5b85356125a881612570565b945060208601356125b881612570565b935060408601359250606086013567ffffffffffffffff8111156125db57600080fd5b8601601f810188136125ec57600080fd5b803567ffffffffffffffff81111561260357600080fd5b88602082840101111561261557600080fd5b959894975092955050506020019190565b60006020828403121561263857600080fd5b5035919050565b634e487b7160e01b600052602160045260246000fd5b6005811061267357634e487b7160e01b600052602160045260246000fd5b9052565b602080825282518282018190526000918401906040840190835b818110156127025783518051845260018060a01b03602082015116602085015260018060a01b036040820151166040850152606081015160608501526080810151608085015260a081015190506126eb60a0850182612655565b506020939093019260c09290920191600101612691565b509095945050505050565b602080825282518282018190526000918401906040840190835b8181101561270257835180518452602081015160208501526040810151604085015260608101516060850152608081015160808501525060a083019250602084019350600181019050612727565b600080600080600060a0868803121561278d57600080fd5b853561279881612570565b945060208601359350604086013592506060860135915060808601356127bd81612570565b809150509295509295909350565b602080825282518282018190526000918401906040840190835b81811015612702578351805184526020808201516001600160a01b0390811682870152604080840151821690870152606080840151908701526080808401519087015260a080840151805191880191909152909101511660c080860191909152015161285460e0850182612655565b506020939093019261010092909201916001016127e5565b60008060006060848603121561288157600080fd5b833561288c81612570565b95602085013595506040909401359392505050565b6000602082840312156128b357600080fd5b81356128be81612570565b9392505050565b600080604083850312156128d857600080fd5b50508035926020909101359150565b634e487b7160e01b600052603260045260246000fd5b6001600160a01b039384168152919092166020820152604081019190915260600190565b60208082526017908201527f496e76616c696420626f72726f77657220737461747573000000000000000000604082015260600190565b602080825260159082015274496e76616c6964206c656e6465722073746174757360581b604082015260600190565b634e487b7160e01b600052601160045260246000fd5b80820281158282048414176129b4576129b4612987565b92915050565b6000826129d757634e487b7160e01b600052601260045260246000fd5b500490565b808201808211156129b4576129b4612987565b600060208284031215612a0157600080fd5b5051919050565b600060208284031215612a1a57600080fd5b815180151581146128be57600080fd5b600060208284031215612a3c57600080fd5b81516128be81612570565b60208082526024908201527f4e6f7420656e6f75676820746f6b656e7320617070726f766564206279206c65604082015263373232b960e11b606082015260800190565b600060018201612a9d57612a9d612987565b5060010190565b60208082526010908201526f24b73b30b634b21029b7b63aba34b7b760811b60408201526060019056fea2646970667358221220b3261b325e1ccbf3b74954171c7caac73cd9e70b4bda783c96db0d1c35b89dcb64736f6c634300081b0033","linkReferences":{}},"methodIdentifiers":{"cancelBorrowerIntent(uint256)":"199c9fa5","cancelLenderIntent(uint256)":"cc52a3b4","changeLoadDuration(uint256)":"a2e47242","claimCollaeral(uint256)":"922307a6","createBorrowerIntent(address,uint256,uint256,uint256,address)":"b4e9dbee","createLenderIntent(address,uint256,uint256)":"dff04c89","getBorrowerIntents()":"c9b89449","getLenderIntents()":"22433dbb","getSolutions()":"367c5adc","onERC721Received(address,address,uint256,bytes)":"150b7a02","owner()":"8da5cb5b","renounceOwnership()":"715018a6","repay(uint256)":"371fd8e6","solve(uint256,uint256)":"f4923026","transferOwnership(address)":"f2fde38b"},"id":26}